:100000000C943B1F0C94681F0C94681F0C94681F81
:100010000C94681F0C94681F0C94681F0C94681F44
:100020000C94681F0C94681F0C94681F0C94681F34
:100030000C94681F0C94681F0C94681F0C94681F24
:100040000C94681F0C94681F0C94681F0C94681F14
:100050000C94681F0C94681F0C94681F0C94AE617C
:100060000C94681F0C94681F0C94681F0C94681FF4
:100070000C94681F0C94681F0C94681F0C94681FE4
:100080000C94681F0C94681F0C94681F0C94681FD4
:100090000C94681F0C94681F0C94681F0C94681FC4
:1000A0000C94681F0C94681F0C94681F0C94681FB4
:1000B0000C94681F0C94681F0C94681F0C94681FA4
:1000C0000C94681F0C94681F0C94681F0C94681F94
:1000D0000C94681F0C94681F0C94681F0C94681F84
:1000E0000C94681FBB2DDB2D022E7B2E7B2E7B2ECE
:1000F000182EC12EBB2DC12E3B2EC12E4A2E4A2EAC
:10010000682E682E022E7B2E7B2E022E4A2EC12EAA
:100110007B2E932EC12EC12EC12EC12EC12EAE2EEE
:10012000C12E8E3A2A3C473D3B3E783F783F5341B3
:10013000BA42C947C74321458E455B49644A154CBD
:10014000154C473D184D184D473D374B734E0D40EC
:100150003C4F07500D523451C6520D546D558255C7
:1001600005A84CCDB2D44EB93836A9020C50B9917D
:100170008688083CA6AAAA2ABE000000803F080C78
:10018000205F0000000000000000000000000000F0
:1001900020202020202000200000002850500000B7
:1001A00000000000000000002828FC2850FC5050EF
:1001B0000000002078A8A0603028A8F020000000EF
:1001C00048A8B0502834544800000000205050780F
:1001D000A8A8906C000000404080000000000000D3
:1001E0000000000408101010101010080400004057
:1001F0002010101010101020400000000020A870E7
:1002000070A8200000000000202020F820202000FE
:1002100000000000000000000000004040800000DE
:10022000000000F8000000000000000000000000D6
:100230000000004000000008101010202040404046
:10024000800000007088888888888870000000001E
:10025000206020202020207000000000708888107E
:10026000204080F80000000070880830080888707E
:10027000000000001030505090781018000000006E
:10028000F88080F00808887000000000709080F00E
:100290008888887000000000F8901020202020201E
:1002A0000000000070888870888888700000000056
:1002B00070888888780848700000000000002000DE
:1002C00000000020000000000000002000000020CE
:1002D0002000000408102040201008040000000046
:1002E0000000F80000F800000000004020100804A2
:1002F0000810204000000000708888102020002096
:1003000000000000708898A8A8B88078000000005D
:1003100020203050507848CC00000000F048487051
:10032000484848F00000000078888080808088700D
:1003300000000000F0484848484848F0000000002D
:10034000F8485070504048F800000000F8485070DD
:10035000504040E000000000384880809C884830D1
:1003600000000000CC484878484848CC0000000015
:10037000F8202020202020F8000000007C10101021
:1003800010101090E0000000EC485060505048EC15
:1003900000000000E0404040404044FC00000000FD
:1003A000D8D8D8D8A8A8A8A800000000DC48686859
:1003B000585848E80000000070888888888888704D
:1003C00000000000F0484870404040E0000000009D
:1003D0007088888888E8987018000000F048487095
:1003E000504848EC0000000078888060100888F0D1
:1003F00000000000F8A8202020202070000000004D
:10040000CC4848484848483000000000CC48485094
:100410005030202000000000A8A8A8705050505074
:1004200000000000D8505020205050D8000000009C
:10043000D85050202020207000000000F89010209C
:10044000204048F8000000382020202020202020D4
:1004500038000040404020201010100800000070BC
:10046000101010101010101070000020500000002C
:10047000000000000000000000000000000000007C
:1004800000FC002000000000000000000000000050
:10049000000000304838483C00000000C040407078
:1004A00048484870000000000000003848404038CC
:1004B00000000000180808384848483C00000000C8
:1004C0000000003048784038000000001C202078F0
:1004D00020202078000000000000003C48304078D8
:1004E00044380000C0404070484848EC000000001C
:1004F000200000602020207000000000100000306C
:100500001010101010E00000C040405C507048EC2B
:1005100000000000E0202020202020F80000000043
:10052000000000F0A8A8A8A800000000000000F04B
:10053000484848EC000000000000003048484830BF
:1005400000000000000000F04848487040E0000053
:100550000000003848484838081C0000000000D857
:10056000604040E000000000000000784030087863
:100570000000000000202070202020180000000053
:10058000000000D84848483C00000000000000EC93
:100590004850302000000000000000A8A870505013
:1005A00000000000000000D8502050D800000000DB
:1005B000000000EC4850302020C00000000000780F
:1005C00010202078000000181010102010101010BB
:1005D00018001010101010101010101010100060E3
:1005E0002020201020202020600040A418000000BF
:1005F0000000000000001010205F0000000000005C
:1006000000000000000000000000000000000000EA
:1006100000000000000000000000000000000700D3
:100620000F800F800F800F800F80070007000000F1
:100630000000070007000700000000000E380E3819
:100640000E380E38063000000000000000000000E8
:100650000000000000000000000000000C300C3022
:100660000C307FFE7FFE0C300C300C300C307FFEE7
:100670007FFE0C300C300C300000000002400240C5
:100680000FF81FF81A401A401FF00FF802580258CE
:100690001FF81FF0024002400000000000000000B0
:1006A0000E100E300E7000E001C0038007000E70C7
:1006B0000C700870000000000000000000000F0037
:1006C0001980198019800F000F080F9819F818F079
:1006D00018E019F00F98000000000000000007006B
:1006E000070007000E0000000000000000000000EE
:1006F000000000000000000000000000000000F00A
:1007000001C0038007000E000E000E000E0007005F
:10071000038001C000F000000000000000000F0096
:10072000038001C000E0007000700070007000E005
:1007300001C003800F0000000000000000000180E5
:100740001188099007E007E03FFC3FFC07E007E065
:1007500009901188018000000000000000000000E6
:1007600000000180018001800FF00FF00180018006
:1007700001800000000000000000000000000000F8
:100780000000000000000000000000000000000069
:100790000700070007000E00000000000000000036
:1007A00000000000000000001FF81FF8000000001B
:1007B0000000000000000000000000000000000039
:1007C0000000000000000000000000000000000029
:1007D0000700070007000000000000000000000202
:1007E0000006000E001C0038007000E001C003800D
:1007F00007000E001C0000000000000000000FF0C9
:100800001C381C781CF81CF81DB81DB81F381F3880
:100810001E381C380FF000000000000000000180AE
:10082000018003801F801F8003800380038003807A
:10083000038003801FF000000000000000000FE0B4
:100840001C701C380038007000E001C003800700F5
:100850000E381C381FF800000000000000000FE0F8
:100860001C701C380038007003C003C000700038D2
:100870001C381C700FE0000000000000000000E0C9
:1008800001E003E006E00CE018E01FF81FF800E0CC
:1008900000E000E003F800000000000000001FF886
:1008A0001C001C001C001C001FE01FF0007800381A
:1008B0001C381C700FE0000000000000000003E086
:1008C00007000E001C001C001FF01FF81C381C380D
:1008D0001C381C380FF000000000000000001FFC56
:1008E0001C1C1C1C1C1C001C0038007000E001C0FB
:1008F00003800380038000000000000000000FF070
:100900001C381C381C381F3807E007E01CF81C385E
:100910001C381C380FF000000000000000000FF031
:100920001C381C381C381C381FF80FF800380038E9
:10093000007000E007C000000000000000000000A0
:100940000000038003800380000000000380038018
:100950000380000000000000000000000000000014
:1009600000000380038003800000000003800380F8
:10097000038007000000000000000000007000E09D
:1009800001C0038007000E001C001C000E000700C1
:10099000038001C000E000700000000000000000C3
:1009A000000000003FFC3FFC000000003FFC3FFC5B
:1009B0000000000000000000000000001C000E000D
:1009C0000700038001C000E00070007000E001C07B
:1009D000038007000E001C000000000003C00FF0A1
:1009E0001E7818380038007000E001C001C0000017
:1009F000000001C001C001C0000000000FF81C1C75
:100A00001C1C1C1C1C1C1CFC1CFC1CFC1CFC1C00C2
:100A10001C001C001FF007F800000000000003C0CD
:100A200007E00E701C381C381C381C381FF81C38A6
:100A30001C381C381C3800000000000000001FF0AB
:100A40000E380E380E380E380FF00FF00E380E3804
:100A50000E380E381FF0000000000000000007F004
:100A60000E381C381C001C001C001C001C001C0044
:100A70001C380E3807F000000000000000001FE0E6
:100A80000E700E380E380E380E380E380E380E38FE
:100A90000E380E701FE000000000000000001FF87C
:100AA0000E180E080E000E300FF00FF00E300E0074
:100AB0000E080E181FF800000000000000001FF8CC
:100AC0000E180E080E000E300FF00FF00E300E0054
:100AD0000E000E001F00000000000000000007F0E4
:100AE0000E381C381C381C001C001C001CF81C385C
:100AF0001C380E3807F800000000000000001C70D1
:100B00001C701C701C701C701FF01FF01C701C707F
:100B10001C701C701C7000000000000000000FE042
:100B200003800380038003800380038003800380AD
:100B3000038003800FE0000000000000000001FCC3
:100B400000700070007000700070007038703870B5
:100B5000387038700FE000000000000000001E3800
:100B60000E380E700EE00FC00F800F800FC00EE029
:100B70000E700E381E3800000000000000001F003C
:100B80000E000E000E000E000E000E000E000E08ED
:100B90000E180E381FF800000000000000001C1C9A
:100BA0001E3C1F7C1FFC1FFC1DDC1C9C1C1C1C1CF9
:100BB0001C1C1C1C1C1C00000000000000001C1C55
:100BC0001C1C1E1C1F1C1F9C1DDC1CFC1C7C1C3CBC
:100BD0001C1C1C1C1C1C000000000000000003E08A
:100BE00007F00E381C1C1C1C1C1C1C1C1C1C1C1C78
:100BF0000E3807F003E000000000000000001FF0C6
:100C00000E380E380E380E380FF00FF00E000E00B2
:100C10000E000E001F00000000000000000003E0B6
:100C20000F780E381C1C1C1C1C1C1C1C1C7C1CFC67
:100C30000FF80FF8003800FC0000000000001FF063
:100C40000E380E380E380E380FF00FF00E700E38CA
:100C50000E380E381E3800000000000000000FF0B3
:100C60001C381C381C381C000FE007F000381C38FA
:100C70001C381C380FF000000000000000001FFCB2
:100C800019CC11C401C001C001C001C001C001C024
:100C900001C001C007F000000000000000001C704F
:100CA0001C701C701C701C701C701C701C701C70E4
:100CB0001C701C700FE000000000000000001C70A1
:100CC0001C701C701C701C701C701C701C701C70C4
:100CD0000EE007C0038000000000000000001C1CA4
:100CE0001C1C1C1C1C1C1C1C1C9C1C9C1C9C0FF8F5
:100CF0000FF80770077000000000000000001C7073
:100D00001C701C700EE007C00380038007C00EE05B
:100D10001C701C701C7000000000000000001C70A3
:100D20001C701C701C701C700EE007C003800380D8
:100D3000038003800FE000000000000000001FF8A7
:100D40001C381838107000E001C0038007000E083E
:100D50001C181C381FF8000000000000000007F0FD
:100D6000070007000700070007000700070007004B
:100D70000700070007F0000000000000000010005E
:100D800018001C000E000700038001C000E0007086
:100D90000038001C0007000000000000000007F001
:100DA00000700070007000700070007000700070C3
:100DB0000070007007F0000000000000018003C018
:100DC00007E00E701C38000000000000000000006A
:100DD0000000000000000000000000000000000013
:100DE0000000000000000000000000000000000003
:100DF0000000000000007FFF7FFF000000001C00DB
:100E00001C000700070000000000000000000000B8
:100E100000000000000000000000000000000000D2
:100E20000000000000000FE0007000700FF01C7068
:100E30001C701C700FD800000000000000001E0095
:100E40000E000E000E000FF00E380E380E380E3861
:100E50000E380E381BF000000000000000000000FB
:100E60000000000000000FE01C701C701C001C0043
:100E70001C701C700FE0000000000000000000F873
:100E80000070007000700FF01C701C701C701C70E3
:100E90001C701C700FD80000000000000000000053
:100EA0000000000000000FE01C701C701FF01C0010
:100EB0001C701C700FE0000000000000000003E048
:100EC00007700770070007001FE01FE0070007001A
:100ED000070007001FC00000000000000000000025
:100EE0000000000000000FD81C701C701C701C70EB
:100EF0000FF007F000701C700FE0000000001E00F3
:100F00000E000E000E000EF00F380F380E380E389F
:100F10000E380E381E38000000000000000001C02E
:100F200001C001C000000FC001C001C001C001C06C
:100F300001C001C00FF800000000000000000070B8
:100F400000700070000003F000700070007000700E
:100F5000007000701C700CF007E0000000001E0024
:100F60000E000E000E000E380E700EE00FC00EE0E8
:100F70000E700E381E3800000000000000000FC088
:100F800001C001C001C001C001C001C001C001C059
:100F900001C001C00FF800000000000000000000C8
:100FA0000000000000001FF81C9C1C9C1C9C1C9C4A
:100FB0001C9C1C9C1C9C0000000000000000000009
:100FC0000000000000001FE01C701C701C701C70F2
:100FD0001C701C701C70000000000000000000006D
:100FE0000000000000000FE01C701C701C701C70E2
:100FF0001C701C700FE000000000000000000000EA
:101000000000000000001BF00E380E380E380E38BD
:101010000E380FF00E000E001F0000000000000050
:101020000000000000001FB038E038E038E038E091
:1010300038E01FE000E000E001F0000000000000E8
:101040000000000000001EF00FF80F380E000E0028
:101050000E000E001F000000000000000000000055
:101060000000000000000FE01C301C300F8003E087
:10107000187018700FE00000000000000000000071
:101080000100030007001FF007000700070007002A
:101090000770077003E0000000000000000000007F
:1010A0000000000000001C701C701C701C701C7084
:1010B0001C701C700FD80000000000000000000031
:1010C0000000000000001C701C701C701C701C7064
:1010D0000EE007C0038000000000000000000000D8
:1010E0000000000000001C1C1C1C1C1C1C9C1C9CE8
:1010F0000FF80770077000000000000000000000FB
:101100000000000000001CE01CE00FC0078007800A
:101110000FC01CE01CE00000000000000000000008
:101120000000000000000E380E380E380E380E3861
:1011300007F003E000E001C01F8000000000000095
:101140000000000000001FE018E011C0038007004D
:101150000E201C601FE0000000000000000001F8ED
:1011600003800380038007001C001C00070003802D
:101170000380038001F800000000000001C001C0EE
:1011800001C001C001C001C001C001C001C001C057
:1011900001C001C001C001C00000000000001F80AC
:1011A00001C001C001C000E00038003800E001C00B
:1011B00001C001C01F8000000000000000001F1CD3
:1011C0003B9C39DC38F80000000000000000000003
:1011D000000000000000000000002032300A000083
:1011E00000000000000000FFFE0001FFFF0003FF01
:1011F000FF8001FFFF600CFFFEF01E0001F83F00C2
:1012000001F83F0001F83F0001F83F0001F83F00FE
:1012100001F83F0001F83F0001F83F0001F83F00EE
:1012200001F83F0001F83F0001F83F0001F83F00DE
:1012300001F83E0000783800001820000008000087
:10124000000020000000380000183E0000783F0039
:1012500001F83F0001F83F0001F83F0001F83F00AE
:1012600001F83F0001F83F0001F83F0001F83F009E
:1012700001F83F0001F83F0001F83F0001F83F008E
:1012800001F83F0001F81E0000F00CFFFE6001FFB6
:10129000FF0003FFFF8001FFFF0000FFFE000000D2
:1012A000000000000000000000000000000000003E
:1012B00000000000000000000000000000600000CE
:1012C00000F0000001F8000001F8000001F8000043
:1012D00001F8000001F8000001F8000001F800002A
:1012E00001F8000001F8000001F8000001F800001A
:1012F00001F8000001F8000001F80000007800008B
:1013000000180000000800000000000000000000BD
:10131000001800000078000001F8000001F800004B
:1013200001F8000001F8000001F8000001F80000D9
:1013300001F8000001F8000001F8000001F80000C9
:1013400001F8000001F8000001F8000001F80000B9
:1013500000F000000060000000000000000000003D
:10136000000000000000000000000000000000007D
:1013700000000000000000FFFE0001FFFF0003FF6F
:10138000FF8001FFFF6000FFFEF0000001F8000099
:1013900001F8000001F8000001F8000001F8000069
:1013A00001F8000001F8000001F8000001F8000059
:1013B00001F8000001F8000001F8000001F8000049
:1013C00001F80000007801FFFE1803FFFF880FFFFF
:1013D000FFE027FFFFC039FFFF003E0000003F0095
:1013E00000003F0000003F0000003F0000003F0001
:1013F00000003F0000003F0000003F0000003F00F1
:1014000000003F0000003F0000003F0000003F00E0
:1014100000003F0000001E0000000CFFFE0001FF66
:10142000FF0003FFFF8001FFFF0000FFFE00000040
:10143000000000000000000000000000000000FFAD
:10144000FE0001FFFF0003FFFF8001FFFF6000FFC0
:10145000FEF0000001F8000001F8000001F80000B3
:1014600001F8000001F8000001F8000001F8000098
:1014700001F8000001F8000001F8000001F8000088
:1014800001F8000001F8000001F80000007801FFF9
:10149000FE1803FFFF880FFFFFE007FFFFC001FFFB
:1014A000FF1800000078000001F8000001F80000BB
:1014B00001F8000001F8000001F8000001F8000048
:1014C00001F8000001F8000001F8000001F8000038
:1014D00001F8000001F8000001F8000001F8000028
:1014E00000F000FFFE6001FFFF0003FFFF8001FF2F
:1014F000FF0000FFFE0000000000000000000000F0
:1015000000000000000000000000000000000000DB
:101510000000000000600C0000F01E0001F83F0019
:1015200001F83F0001F83F0001F83F0001F83F00DB
:1015300001F83F0001F83F0001F83F0001F83F00CB
:1015400001F83F0001F83F0001F83F0001F83F00BB
:1015500001F83E00007839FFFE1823FFFF880FFFD7
:10156000FFE007FFFFC001FFFF1800000078000048
:1015700001F8000001F8000001F8000001F8000087
:1015800001F8000001F8000001F8000001F8000077
:1015900001F8000001F8000001F8000001F8000067
:1015A00001F8000001F8000000F0000000600000F9
:1015B000000000000000000000000000000000002B
:1015C000000000000000000000000000000000FF1C
:1015D000FE0001FFFF0003FFFF8001FFFF000CFF83
:1015E000FE001E0000003F0000003F0000003F0022
:1015F00000003F0000003F0000003F0000003F00EF
:1016000000003F0000003F0000003F0000003F00DE
:1016100000003F0000003F0000003E00000039FFD6
:10162000FE0023FFFF800FFFFFE007FFFFC001FF69
:10163000FF1800000078000001F8000001F8000029
:1016400001F8000001F8000001F8000001F80000B6
:1016500001F8000001F8000001F8000001F80000A6
:1016600001F8000001F8000001F8000001F8000096
:1016700000F000FFFE6001FFFF0003FFFF8001FF9D
:10168000FF0000FFFE00000000000000000000005E
:1016900000000000000000FFFE0001FFFF0003FF4C
:1016A000FF8001FFFF000CFFFE001E0000003F0056
:1016B00000003F0000003F0000003F0000003F002E
:1016C00000003F0000003F0000003F0000003F001E
:1016D00000003F0000003F0000003F0000003F000E
:1016E00000003E00000039FFFE0023FFFF800FFFD7
:1016F000FFE027FFFFC039FFFF183E0000783F00E2
:1017000001F83F0001F83F0001F83F0001F83F00F9
:1017100001F83F0001F83F0001F83F0001F83F00E9
:1017200001F83F0001F83F0001F83F0001F83F00D9
:1017300001F83F0001F81E0000F00CFFFE6001FF01
:10174000FF0003FFFF8001FFFF0000FFFE0000001D
:10175000000000000000000000000000000000FF8A
:10176000FE0001FFFF0003FFFF8001FFFF6000FF9D
:10177000FEF0000001F8000001F8000001F8000090
:1017800001F8000001F8000001F8000001F8000075
:1017900001F8000001F8000001F8000001F8000065
:1017A00001F8000001F8000001F8000000780000D6
:1017B0000018000000080000000000000000000009
:1017C000001800000078000001F8000001F8000097
:1017D00001F8000001F8000001F8000001F8000025
:1017E00001F8000001F8000001F8000001F8000015
:1017F00001F8000001F8000001F8000001F8000005
:1018000000F0000000600000000000000000000088
:1018100000000000000000000000000000000000C8
:1018200000000000000000FFFE0001FFFF0003FFBA
:10183000FF8001FFFF600CFFFEF01E0001F83F007B
:1018400001F83F0001F83F0001F83F0001F83F00B8
:1018500001F83F0001F83F0001F83F0001F83F00A8
:1018600001F83F0001F83F0001F83F0001F83F0098
:1018700001F83E00007839FFFE1823FFFF880FFFB4
:10188000FFE027FFFFC039FFFF183E0000783F0050
:1018900001F83F0001F83F0001F83F0001F83F0068
:1018A00001F83F0001F83F0001F83F0001F83F0058
:1018B00001F83F0001F83F0001F83F0001F83F0048
:1018C00001F83F0001F81E0000F00CFFFE6001FF70
:1018D000FF0003FFFF8001FFFF0000FFFE0000008C
:1018E000000000000000000000000000000000FFF9
:1018F000FE0001FFFF0003FFFF8001FFFF600CFF00
:10190000FEF01E0001F83F0001F83F0001F83F0023
:1019100001F83F0001F83F0001F83F0001F83F00E7
:1019200001F83F0001F83F0001F83F0001F83F00D7
:1019300001F83F0001F83F0001F83E00007839FF50
:10194000FE1823FFFF880FFFFFE007FFFFC001FF26
:10195000FF1800000078000001F8000001F8000006
:1019600001F8000001F8000001F8000001F8000093
:1019700001F8000001F8000001F8000001F8000083
:1019800001F8000001F8000001F8000001F8000073
:1019900000F000FFFE6001FFFF0003FFFF8001FF7A
:1019A000FF0000FFFE000000000000000000201803
:1019B000205F0000000000000000000000000000A8
:1019C0000000000000000000000000000000000017
:1019D0000000000000000000000000000000000007
:1019E00000000000000000000000000000000000F7
:1019F00000000000000000000000000000000000E7
:101A000000000000000000000000000000000000D6
:101A10000000000000000000000000120000001F95
:101A20008000000DC000001EE000003330000061A7
:101A3000980000CCCC0000CC6C0001803600030282
:101A4000360007061B00018E1B0000F61B00000677
:101A50001B0000061B0000061B000007FB00000720
:101A6000FB0000000000000000000000000000007B
:101A700000000000000007FFFE0007FFFF00060057
:101A800003000600030006063300060633000600C6
:101A9000330006003300070033000380330001C029
:101AA000330000FC3300007C3300000C3F00000CCE
:101AB0001E00000C0000001BFC0000192400001F89
:101AC000FC0000000000000000000000000000001A
:101AD000000000000000000000000080040000EF93
:101AE000DC0000FFFC0000D02C0000C00C000180D6
:101AF00006000180060003000300030CC300030C72
:101B0000C3000300030003030300018A4600018FA2
:101B1000C60000E01C0000703800003FF000000F1D
:101B2000C0000000000000000000000000000000F5
:101B30000000000000000000000000E01E0003F7AD
:101B4000BF0003FFFF0003F03F0003E01F00018020
:101B50000600019C66000335B30003353300033CE7
:101B6000F300037C7B0003387300018006000180D2
:101B7000060000E01C0000703800003FF000000F7D
:101B8000C000000000000000000000000000000095
:101B900000000000000000000000000FE000003026
:101BA0003F00004000800080008001000080013084
:101BB000008002300080020001800200010002006B
:101BC00001000201010002010100027F0100024147
:101BD000010002410200024102000138FC000188BC
:101BE000000000780000000000000000000000007D
:101BF00000000000000000078000001FE000003F20
:101C0000F000007FF800007FFC0000FFFC0000FFF8
:101C1000FC0001C00E00019FE600018CC60001CC53
:101C2000CE0001C00E0001CCCE000197A6000180BD
:101C300006000180060000C00C0000FFFC00003F11
:101C4000F0000000000000000000000000000000A4
:101C50000000000000000000000000000000000084
:101C600000000000000001C0000006C003000440A6
:101C70000280064002400E200140012E0320009108
:101C800002200085FE20044569200CC300201FE0CF
:101C9000006010000040180E99800FF8E100000F5E
:101CA000BF00000000000000000000000000000075
:101CB000000000000000000000000070380000FF7D
:101CC000FC00008FC60001BFF60001F87E0001E0B5
:101CD0001F0003C00F0003800700038CC600038CA5
:101CE000C700038007000383070003C94F0003CF29
:101CF000CF0003C00F0000F03C0000FCFC00003FE0
:101D0000F0000003000000000000000000000000E0
:101D10000000000000000000000000078000000F2D
:101D2000C0000019E0000039E000005FE000003F63
:101D3000E0000017E0000013F0000013F000003393
:101D4000F8000023F8000023FC000023F00000331B
:101D5000F000001BF000001FF0000021F800003F21
:101D6000F80000000000000000000000000000007B
:101D70000000000000000000000000000000000063
:101D8000000000000020000000E0000000C01FFF75
:101D9000FFC01FFFFFC0107FFFC0157FFDC015BF34
:101DA000F8E00AFFF8600F3FF00007FFC00001FFF6
:101DB000800000078000000080000000000000009C
:101DC0000000000000000000000000000000000013
:101DD0000000000000000000000000000000000003
:101DE000000000000000000C0000000F0000001FB9
:101DF000C00000FFE00001EFF1C003EFFB80066FC1
:101E0000FF000E63FF0007F3FB8003EBF18000FF90
:101E1000F040001C10000000000000000000000066
:101E200000000000000000000000000000000000B2
:101E3000000000000000000000000001000000039E
:101E4000000000070000000F000000170000002342
:101E5000010000C0830001804F0002603F00066067
:101E60003F0001804F0000C08300002301000017E5
:101E70000000000F00000007000000030000000148
:101E80000000000000000000000000000000000052
:101E90000000000000000000000000000000001F23
:101EA000E0000067980000F03C0001E79E0003EFAF
:101EB000FF00020C310003F8DF8007E8DF8007F83D
:101EC0001F8007F83F8007E8FF800728D380061CA3
:101ED000E18002172100021FE1000210210003F03F
:101EE0003F000000000000000000000000000000B3
:101EF00000000000000000000000001C7000001442
:101F000050000092940000FABE0000FABE0000FBF0
:101F1000BE0000739C00000FE0000007C000001F1F
:101F2000F0000007C000001FF000001FF0000007D5
:101F3000C000000380000006C000000FE000000F9A
:101F4000E0000000000000000000000000000000B1
:101F5000000000000000000000000001C000000FB1
:101F6000E000003FA000007FE000007DE00000F006
:101F7000000000F0000000FBE00000FFF00000FFA8
:101F8000F80000FFF800007FFC00007FFC00007FED
:101F9000FC000077FE000077FE0000771F0000774E
:101FA0001C80000000000000000000000000000095
:101FB000000000000000000FC0000030300000C032
:101FC0000C000180C6000101F2000203F1000207CB
:101FD000A10004076080040E0080040C0080041C33
:101FE0000080041C0080041C0080023E0100023AB4
:101FF0000100011402000024060000200C00003043
:102000003000000FC00000000000000000000000D1
:1020100000000000000000000000000000000000C0
:1020200000000000000007FFFF800500008005C0E1
:10203000008007FFFF8007FFFF800400008004008E
:102040000080040000800400008004000080040080
:1020500000800400008007FFFF80000000000000F7
:102060000000000000000000000000000000000070
:102070000000000000000000000000000000000060
:102080000000000000000000000003FFFF800200CD
:10209000008006FE3E8006FE00800600008006FFEF
:1020A000FE8006FEFE800600008007FFFF80040021
:1020B000010007FFFF00000000000000000000001A
:1020C0000000000000000000000000000000000010
:1020D0000000000000000000000000000000000000
:1020E0000000000038000000C60000008200000070
:1020F000820003FF838002004480060738800618B0
:10210000C08006104080061040800618C080060778
:10211000008007FFFF800400010007FFFF000000B0
:1021200000000000000000000000000000000000AF
:102130000000000000000000000000440000004417
:1021400000000044000000FE00000082000000FECD
:10215000000000FE000000FE0000007C00000010F7
:102160000000001078000010CC0000108400001067
:1021700084000010840000198400000F0400000097
:10218000040000000000000000000000000000004B
:10219000000000000000000000000000000000003F
:1021A000000000000000007C00000092000000928F
:1021B00000000082000000EE000000820000007CB1
:1021C0000000001078000010CC0000108400001007
:1021D00084000010840000198400000F0400000037
:1021E00004000000000000000000000000000000EB
:1021F00000000000000000000000000200000002DB
:1022000000000047100000CF980000EFB80001DF89
:10221000DC0003CF9E0001FFFC0001FFFC0003DF98
:10222000DE0003AFAE0007FFFF0003DFDE0003BFE9
:10223000EE0007870F0007F77F0008E7388000E708
:102240003800000000000000000000000000000056
:10225000000000000000000000000037B000003760
:10226000B000003FF000003FF000003FF000001F12
:10227000E000000FC000000300000003000003C3E3
:102280000F0001E31E0000F33C00007B7800003FDC
:10229000F000001FE000000FC000000780000003F6
:1022A000000000000000000000000000000000002E
:1022B0000000000000000002000000020000000713
:1022C0000000000500000002000000078000001F61
:1022D000C00000272000001FC000003FE000007F7A
:1022E000F000009FC800003FE00000FFF80001FF81
:1022F000FC0003FFFE0004070100000700000007C8
:1023000000000000000000000000000000000000CD
:102310000000000000000000000000190000001B89
:102320008000001FC000001FE000001FF000003F01
:10233000F800007FFC0000FFFE0000E10E0000E15D
:102340000E0000E10E0000FFFE0000FFFE0000E1B5
:102350000E0000E10E0000E10E0000FFFE0000FF95
:10236000FE0000000000000000000000000000006F
:1023700000000000000000000000007FFC000040A2
:1023800004000059B4000059B400004004000040AB
:1023900004000059B4000059B4000040040000409B
:1023A00004000059B4000059B4000040040000408B
:1023B0000400004184000041840000418400007F4B
:1023C000FC00000000000000000000000000000011
:1023D00000000000000003FFE0000200200002FFF8
:1023E000A0000200200002FFA0000200200002FF67
:1023F000A0000200200002FFA0000200200002FF57
:10240000A00002FFA0000200200002FFA0000200C6
:102410002000023E2000023E2000023E200003FF7A
:10242000E0000000000000000000000000000000CC
:102430000000000000000003000000030000000F87
:10244000C000000FC0000003000000030000000FE8
:10245000C000001FE000007FF80000FFFC0001FF4B
:10246000FE0001FCFE0001F87E0001F87E0001F88C
:102470007E0001F87E0001F87E0001F87E0001F880
:102480007E000000000000000000000000000000CE
:102490000000000000000000000001FDFC0003221D
:1024A0002600020002000200020000222600007D39
:1024B000FC0003000000030000000300000003080C
:1024C00042000318C6000339CE00037BFE0003FF61
:1024D000FE0003FFFE0003FFFE0003FFFE0003FFFC
:1024E000FE000000000000000000000000000000EE
:1024F00000000000000000010000180FC06017DF9E
:10250000EFA0107138201031302010D12C201F1F67
:10251000E3E0001FE000001FC000001FC000001F1C
:10252000C000001FC000001FC000001FE000001F0F
:10253000E000001FE000001FE000001FE000001F9F
:10254000E0000000000000000000000000000000AB
:1025500000000000000000000000000FE000000C80
:102560006000000920000009A00000082000000C05
:102570006000000FE000007FFC00007FFC00007F97
:10258000FC0001FFFF0001FC7F0001F83F0001F8A3
:102590003F0001F83F0001F83F0001F83F0001F85B
:1025A0003F000000000000000000000000000000EC
:1025B00000000000000000080000000F0000000BF9
:1025C000E0000008780000080800000F0800000B79
:1025D000E80000087800000808000008080000086B
:1025E000080000080800000808000078080000F84B
:1025F000080001F8080001F0780001E0F80000018F
:10260000F8000001F0000000E00000000000000001
:1026100000000000000000000000001C3800003E28
:102620007C00003E7C00003E7C00001C3800010065
:10263000000001CFF00001FFF00001FFF00001FFFA
:10264000F00001CFF0000107E0000005A000000D40
:10265000B0000009900000199800001188000031B6
:102660008C000000000000000000000000000000DE
:1026700000000000000000000000007FFE0000A03D
:1026800014000140140001C018000140180001406E
:10269000280001FFF800014018000140140000C0AC
:1026A0001C0000A0140000A00C00007FFC0000A093
:1026B0000E0000E00C0000E00C0000C0140001FF60
:1026C000F800000000000000000000000000000012
:1026D00000000000000000000000000000000000FA
:1026E0000E000001F600003ECE0003F9F000023EAD
:1026F000000003FFFE00031CE20003FFFE00007F5A
:10270000FE00007FFE00007FFE00007FFE00007FD5
:10271000FE00007FFE00007FFE00000000000000C1
:1027200000000000000000000000000000000000A9
:102730000000000000000000000000FFE000008238
:1027400020000082200000FF20000081200000FF08
:10275000E000008E200000FFE0000080200000FF6D
:10276000E000008720000085E00000FD300000153B
:102770002E00006F2A000041EE00003C3C000007E4
:10278000F000000000000000000000000000000059
:1027900000000000000000000000002000000020F9
:1027A0000000005000000058000000570000002901
:1027B0000000002C8000002480000012500000491E
:1027C000B8000044F00000435C0000A0BF80071D7B
:1027D0007F8000A08F800040070000400000004084
:1027E00000000000000000000000000000000000E9
:1027F00000000000000000000000000F000000309A
:10280000C00000204000004023000040260000409F
:10281000260000402E0000205A000030F100000F7A
:10282000190000051E0000773C00007C7C0000FFC2
:10283000F800007FF000001FE0000007C00000006B
:10284000C0000000000000000000000000000000C8
:102850000000000000000000000000012000000651
:10286000D8000004C800000DA8000015FC00006599
:10287000A60000E3720001F69C0003FB670000FC69
:102880009700007E3F00003DFF8000175000003998
:10289000D800000EC8000004C8000009B800001BE2
:1028A0000000000400000000000000000000000024
:1028B00000000000000000101800001010000408C4
:1028C0002000020BA0C00103E1000083F200000F12
:1028D000FC000033FE000861FF0007763F0000782F
:1028E0000F00007C0F00003E0600009FF800010F63
:1028F000FA000607F9000803F880001BF8C0001072
:1029000000000020840000208400000080000000FF
:1029100000000000000000000000000000000003B4
:10292000000000030000000FC000001FE000003F97
:10293000F000007FF8000064980000649800007FB9
:10294000F8000000000001FFFE0003FFFF0007FF8A
:10295000FF8001F7BE0001F7BE0000E31C0000008D
:102960000000000000000000000000000000000067
:102970000000000000000000000000000000000057
:102980000000000000000000000000000000000344
:10299000F8000FC7FC0001FFFC000007FC00000767
:1029A000FC000000000000FFFF0001FFFF8001FFAE
:1029B000FF8001FFFF8001FFFF8001000080018098
:1029C000018000FFFF000000000000000000000088
:1029D000000000000000000000000000780000106F
:1029E0004400002024000047160000C89E00035049
:1029F0004F0004504F0002904F00078887800787E0
:102A00001F8007E53FC00FF77F000FF8FE0003FDB2
:102A1000FC00007DF800007FF000007FF000007FE8
:102A2000F0000000000000000000000000000000B6
:102A3000000000000000000180000003800000038F
:102A4000400000024000000440000004C0000003F9
:102A5000800000070000000E00000019C0000037D1
:102A6000E000003570000035300000333000001900
:102A70002000001CE0000007800000008000000E25
:102A80008000000E80000007000000000000000031
:102A90000000000000000000000000010000000134
:102AA00080000001C0000001E00000017000000192
:102AB00018000001080000010800000108000001E2
:102AC00008000001100000012000000100000001CA
:102AD0000000000F0000003F0000003E0000003C2E
:102AE00000000000000000000000000000000000E6
:102AF0000000000000000000000007FFFF8004004D
:102B0000008004FFFC8005FFFE8005FF068005FFB6
:102B1000068005FF068005FFF68005FFF68005FFAD
:102B2000F68005FFFE8005FFFE8005FFFE8005FFA5
:102B3000FE8004000080059BC0800400008007FF29
:102B4000FF80000000000000000000000000000006
:102B50000000000000000000C00000018000000232
:102B60000000000400000008000000100000002029
:102B7000000003FFFE00024F0E00024CE600027D43
:102B8000F600024BFA00024BFA00027BFA00027BCD
:102B9000FA00027DF600027CE600027F1E0001FFC3
:102BA000FC00000000000000000000000000000029
:102BB00000000000000000000000000FE000001610
:102BC000D000001930000016D0000016D000001907
:102BD00030000016D000003FF80000301800003F21
:102BE000F800003FF800003FF800002FE800002048
:102BF0000800001FF0000003800000038000000FA9
:102C0000E0000000000000000000000000000000E4
:102C100000000000000000000000000000000000B4
:102C200000000000000000FFFC0007FFFF800FFF16
:102C3000FFC00FC00FC0000FC0000F9CE7C00030E6
:102C40003000003030000060180000E01C0000F090
:102C50003C0001F03E0001F87E0001FFFE0001FF94
:102C6000FE00000000000000000000000000000066
:102C700000000000000000000000000003E0000071
:102C80003C100001F008001E3C0400FC3E040183DF
:102C90003C04010138040206B0047E18B004811718
:102CA000B00480E8B004C028B0045F9880042048D5
:102CB000800410048038080383C004019C0003FFD3
:102CC000E000000000000000000000000000000024
:102CD00000000000000000000000000003E0000011
:102CE0001C100001E008000E0004007C00040183B9
:102CF000000401010004020080147E0080E48100D1
:102D00008FE480C0BFE4C020B1C45F9080C420487D
:102D1000800410048038080283C004019C0003FF73
:102D2000E0000000000000000000000000000000C3
:102D3000000000000000000000000FF0000008107C
:102D4000000008100000780FFE0040000200400064
:102D5000020041FFFFF8410000084200001042005D
:102D600000104400002048000020480000405000AF
:102D700000805000008060000100600001007FFFC3
:102D8000FE00000000000000000000000000000045
:102D900000000000000000000000001FE000003FF5
:102DA000F000003030000030300007FFFF8007FFE8
:102DB000FF8007FFFF8007FFFF8007FFFF8007FFFF
:102DC000FF8007FFFF8007FFFF8007FFFF8007FFEF
:102DD000FF8007FFFF8007FFFF8007FFFF8007FFDF
:102DE000FF80000000000000000000000000000064
:102DF0000000000000000000000000000000000FC4
:102E0000E000001FF000073FF8000740040007FF44
:102E1000FFC007FFFFC007F83FC007F01FC007E073
:102E20000FC007E00FC007E00FC007E00FC007E0CA
:102E30000FC007F01FC007F83FC007FFFFC007FF24
:102E4000FFC00000000000000000000000000000C3
:102E500000000000000000000000000FC000003073
:102E60003000004008000083040001030200010359
:102E7000020002030100020301000203F900020341
:102E8000F90002000100020001000100020001003F
:102E90000200008004000040080000303000000FF5
:102EA000C000000000000000000000000000000062
:102EB0000000000000000000000000000000000012
:102EC000000000000000000000000F000000108063
:102ED0000000108003C010801FE00FF07F00003F53
:102EE000F800001FE000001FE000003FF8000FF0B6
:102EF0007F0010801FC0108003E0108000000F00D2
:102F000000000000000000000000000000000000C1
:102F1000000000000000000000000007C0000018D2
:102F200030000033D800002C68000050140000501E
:102F30001400005014000050140000FFFE0000FFB9
:102F4000FE0000FEFE0000FC7E0000FEFE0000FE13
:102F5000FE00007EFC00003FF800001FF0000007AC
:102F6000C0000000000000000000000000000000A1
:102F7000000000000000000000000000F800000158
:102F8000FC000003FE000007C7000007C7000007A1
:102F9000C7000007FF00000FFF00000FFE00000F3A
:102FA000FC00003FF800003F000000FE000000FCB5
:102FB000000003F8000003F0000003E0000003C07D
:102FC0000000000000000000000000000000000001
:102FD00000000000000000000000000000000000F1
:102FE000000000000000003FF00000201000004042
:102FF000080000400800004008000080040001FFB5
:10300000FF00039FE700030FC300030FC300039FEC
:10301000E70003FFFF0000E01C0000E01C0000E0F0
:103020001C00000000000000000000000000000084
:103030000000000000000000000000000000000789
:10304000800000048000001FE0000020100000400D
:10305000100000400800004008000080040001FF4C
:10306000FF00039FE700030FC300030FC300039F8C
:10307000E70003FFFF0000E01C0000E01C0000E090
:103080001C00000000000000000000000000000024
:103090000000000000000000000000FFFC0000E055
:1030A0001C0001E01E0001FFFE0001000200010003
:1030B000020001000200010002000100020001FF05
:1030C000FE0001CFCE00018786000187860001CF78
:1030D000CE0001FFFE000070380000703800007064
:1030E00038000000000000000000000000000000A8
:1030F00000000000000000000000007FFC00007FD6
:10310000FC000040040000400400004004000040B7
:103110000400004004000040040000400400007F60
:10312000FC0000478C0000478C0000478C00007FAB
:10313000FC0000301800002008000040040001805E
:10314000030000000000000000000000000000007C
:103150000000000000000000000000070000000761
:103160000000000700000007800000078000010742
:1031700080000187C0000187C00001FFFF8001FFC0
:10318000FF8001FFFF800187C000018780000107E9
:103190008000000780000007000000070000000713
:1031A000000000000000000000000000000000001F
:1031B000000000000000000000000000000000000F
:1031C0000000000000000FFFC0000FFFC0000FFF55
:1031D000C0000FFFFF000FFFF8800FFFF8800FFF08
:1031E000F8800FFFF84000003FC00FFFFFC00F0145
:1031F000F9C00EC6F6C00DEF6F4001EF0F0000C61C
:1032000006000000000000000000000000000000B8
:1032100000000000000000000000000000000000AE
:1032200001C0000006600000082000001E20000011
:103230006E400000B58000034B0000049400001BAA
:1032400068000024B000005B400001A58000015A26
:103250000000026C0000045000000CE000000F00B1
:10326000000010000000000000000000000000004E
:10327000000000000000000000000000400000000E
:1032800060000000F000000FC00000338000004725
:103290008000008E63F0011C1E700138027002383D
:1032A0000270027B0270047C02700480027007804E
:1032B00006700B7FFBF00A0000700C00000000009D
:1032C00000000000000000000000000000000000FE
:1032D00000000000000000001000000038000000A6
:1032E000F8000000F8000001F8000001F8000003F9
:1032F000F8000003F0000007F0000005F000000FE8
:103300006000000DC000000F6000000BC000001640
:103310008000001200000022000000230000003C9A
:10332000000000200000000000000000000000007D
:10333000000000000000000000000007FC00001872
:103340001C00003FE400002024000027240000208F
:10335000240000202400002024000020240000205D
:103360002400003FE4000020240000272400002067
:103370002400002024000020280000203000003F0E
:10338000E00000000000000000000000000000005D
:1033900000000000000000000000001FE00000200E
:1033A00010000020100000305000002FD000001747
:1033B000E0000013A000000B4000000580000005A5
:1033C00080000009400000112000001120000021B1
:1033D000100000279000002FD000002FD000001F09
:1033E000E0000000000000000000000000000000FD
:1033F0000000000000000000000007FDFF000C07B7
:1034000001803C0201E034020160340201603402B8
:103410000160340201603402016034020160340250
:10342000016034020160340201603402016037FA45
:10343000FF6038070160380200E03FFAFFE0000F4C
:1034400080000000000000000000000000000000FC
:103450000000000000000000000000FFFE000080EF
:103460000200008002000080020000800200008054
:103470000200008002000080020000800200008044
:103480000200008002000080020000800200008034
:103490003E0000802400008028000080300000FFF3
:1034A000E00000000000000000000000000000003C
:1034B0000000000000000000000000FFFE0000808F
:1034C00002000080020000BF820000800200008035
:1034D000020000BFFA0000BFFA000080020000BF37
:1034E000FA000080020000BFFA000080020000BF66
:1034F000BE0000802400008028000080300000FF13
:10350000E0000000000000000000000000000000DB
:1035100000000000000000000000000FFF80000815
:10352000008000080080007FFC800040048001FFD4
:10353000F4800100148001001480017F9480010058
:103540001480017F948001001480017F9480010029
:10355000148001001480017F948001001480017F99
:10356000978001001400017E140001001C0001FF7F
:10357000F00000000000000000000FFFFFE0080066
:103580000020080003A009FC03A0080003A009FC18
:1035900003A0080003A00800002008000020080085
:1035A000002009FFF8200800002009FFF82008008B
:1035B000002009FFF82008000020080000200FFF6D
:1035C000FFE000000000000000000000000000001C
:1035D000000000000000000000000FFFFFE00C00F2
:1035E00000600A0000A009000120088002200840B5
:1035F0000420082008200810102008082020080CAB
:103600006020081AB0200823882008400420088081
:103610000220090001200A0000A00C0000600FFF3A
:10362000FFE00000000000000000000000000000BB
:103630000000000000000000000001FFFC0001E0AD
:103640001E0001E0DE0001E0DE0001E0DE0001E03E
:10365000DE0001E01E0001FFFE0001800600018087
:10366000060001800600018006000180060001803E
:10367000060001800600018006000180060001FFAF
:10368000FE0000000000000000000000000000003C
:103690000000000000000000000003FFFF00020027
:1036A000030002000300020003000200020003FF07
:1036B000FF0003FFFF0003F8FF0003F07F0003F0AB
:1036C0007F0003F07F0003F8FF0003FFFF0003FC0F
:1036D000FF0003FCFF0003FCFF0003FCFF0003FFEF
:1036E000FF000000000000000000000000000000DB
:1036F00000000000000000000000000000000000CA
:1037000000000000000007FFFF8007FFFF8007FFA9
:10371000FF8004F87C80048CC480058CC680058CF6
:10372000C68004FCFC8004F87C8007FFFF8007FF54
:10373000FF8006FFFD800000000000000000000088
:103740000000000000000000000000000000000079
:1037500000000000000000000000000FC000003E5C
:103760003000007E080000FE04000178020001F72E
:10377000820002F8610003F0310003E3110003E36B
:103780001F0002231F0002103F0001187E000107E6
:10379000FE000081FC000041F8000031F000000F45
:1037A000C000000000000000000000000000000059
:1037B00000000000000000000000000FC000003109
:1037C000F000005FF80000A7FC0001D9FE0001A78F
:1037D000FE0001D83E0003A01F0003A31F0003E367
:1037E0001F0003E31D0001E02E0001F03A0001FF7D
:1037F000EA0000FE7400007FC800003E3000000FA9
:10380000C0000000000000000000000000000000F8
:103810000000000000000000000001FFFE000100A9
:103820000200017FFE000140060001400600014049
:10383000060001400600014006000140060001406C
:103840000600017FFE0001FFFE0001FFFF000100F6
:103850000100036F798002DFBC800200008003FF5B
:10386000FF800000000000000000000000000000D9
:103870000000000000000000000000010000000146
:1038800000000003000000FE000001000000010035
:103890000000010000001FFFFFC0100000401000EA
:1038A000004017BDEDC01000004017BDEDC0100076
:1038B0000040177EEDC010000040100000401FFFC8
:1038C000FFC0000000000000000000000000000039
:1038D0000000000000000000000000000000003FA9
:1038E000F0000040080000400800004008000040D0
:1038F0007F0000408980004088800380FF800000B6
:1039000080800000808000008080000080800000B7
:103910008080000080800000C18000006300000003
:103920003E00000000000000000000000000000059
:103930000000000000000000000000000000000087
:103940000000000000000000000000000000000077
:103950000000000000000000000000000000000067
:10396000000001FFFF0001000100013FF90001001C
:10397000010001000900010001000100010001FF38
:10398000FF00000000000000000000000000000038
:103990000000000000000001000000078000000798
:1039A000C000000BA000000BA000000920000009CF
:1039B00020000007C00000052000001A20000013AE
:1039C000100000129000001C7800001C3800001C41
:1039D0003800001C3800001C3800000C3000000EBD
:1039E0007000000660000000000000000000000001
:1039F000000000000000000000000018700000251A
:103A000078000027F800001FF000007FE00000FFB2
:103A1000800001FF800001FC800000F2400000E215
:103A200020000001200000011000000090000000B4
:103A30008800000044000000240000002200000074
:103A40001C0000000000000000000000000000005A
:103A50000000000000000000000000000000000066
:103A600000000000000000001E0000002100000017
:103A7000210000004780000088000003078001EC5F
:103A800021000210DE00078300000084000000C84F
:103A90000000079000000210000001E0000000009C
:103AA0000000000000000000000000000000000016
:103AB0000000000000000000000000000F000000F7
:103AC0001F8000003F8000007F8000007F0000001A
:103AD0007E000001FC000000F80000016000000210
:103AE000A00000050000000A0000001400000028EB
:103AF000000000D000000120000002200000024071
:103B00000000018000000000000000000000000034
:103B10000000000FFC0000080600000BF700000882
:103B20000080000BFE800008008007FBFEC00648F6
:103B300000C0064B80C0064800C0065FFFC00650AC
:103B4000004006506F4006506F4006506F400657C9
:103B50006F4006576F4006576F4007D0004007FF81
:103B6000FFC0000000000000000000000000000096
:103B70000000000000000000000000FFF0000080D6
:103B8000380000803C0000803C0000800400008081
:103B90000400008004000080040003FFFF00020016
:103BA00001000FFFFFC0092480400924804009FF65
:103BB000804008000040080000400FFFFFC003FFE6
:103BC000FF000000000000000000000000000000F6
:103BD00000000000000000000000000000000000E5
:103BE0000000000000000078000000780000007B6A
:103BF000E000007A2000007A200000FE3C000080F7
:103C0000040003BF7700020001000200010003FF6F
:103C1000FF0001FFFE0001FFFC0001FFFC0000FFB0
:103C2000F80000000000000000000000000000009C
:103C30000000000000000000000000070000000D70
:103C40008000001AC000001540000017400000125C
:103C500040000067300000D2580001974C00021766
:103C60004200021242000218C20003E73E0003E7CE
:103C70003E00003DE000003DE000000000000018B4
:103C8000C000003DE000000A8000000200000000CB
:103C90000000000000000000000000000000000024
:103CA00000000000000000000000000700000038D5
:103CB0000000007800000077FFC00037FDC0002F33
:103CC000F80003EFE7000467E8800893D04009910B
:103CD000FE400BD0FE40091010400420088003C0B5
:103CE00007000000000000000000000000000000CD
:103CF00000000000000000000000000000000000C4
:103D00000000000000000000000000000000000FA4
:103D1000000000080000001FF0000034300003E441
:103D20004F8006725CC00C5A946008C9A6200889AE
:103D3000FE20080820200C101060063018C003E098
:103D400007800000000000000000000000000000EC
:103D5000000000002100240027002A002D00300070
:103D6000330001010000040107010A0100002200E4
:103D7000250028002B002E00310034000201000035
:103D8000050108010B010000200023002600290086
:103D90002C002F0032000001000003010601090180
:103DA00005050505070508080808020202020A0AB7
:103DB00008080404040401010101010101010303D5
:103DC000030303030303040707070C0C0C0C0C0C80
:103DD0000C0C0202020206060606060606060B0B7D
:103DE0000B0B0B0B0B0B01021020200808102040BE
:103DF00010204080020102010804020101020408AF
:103E0000102040808040201008040201800402013C
:103E10008040201008040201080402010102040885
:103E20001020408001020408102040800000090A90
:103E300002080B0C0D07060304010000000000003F
:103E40000000000000000000000000000000000072
:103E5000000000000000000011100F000000000032
:103E60000000000000000000000000000000000052
:103E7000000012200D2011241FBECFEFD1E2DEBFC3
:103E8000CDBF00E00CBF15E0A0E0B2E0EEE5F2ED42
:103E900000E00BBF02C007900D92A832B107D9F71E
:103EA0001BBE17E0A8E2B5E001C01D92A937B1071B
:103EB000E1F71EE3C4E7DEE304C02297FE010E949F
:103EC0001F69C237D107C9F70E9496630C94236912
:103ED0000C940000FB01DC0102C001900D924150E6
:103EE0005040D8F70895FB01DC0101900D920020AD
:103EF000E1F70895FB01DC014150504048F001908A
:103F00000D920020C9F701C01D9241505040E0F7CA
:103F10000895CF92DF92EF92FF920F931F9381301B
:103F2000910509F063C06F5F7F4F09F06FC088E3B0
:103F300095E060E072E00E9435648FE395E065E013
:103F400072E00E94356486E495E06DE072E00E94C4
:103F500035648DE495E065E172E00E94356484E5A6
:103F600095E06CE172E00E9435648BE595E066E2D5
:103F700072E00E94356482E695E06EE272E00E9493
:103F8000356489E695E065E372E00E94356480E778
:103F900095E06AE372E00E94356487E795E063E4A8
:103FA00072E00E94356486ED95E062E046E250E002
:103FB00027E230E008E210E079E2E72EF12CCC2491
:103FC000DD240E947F5687E096E066E045E024E02D
:103FD00003E032E0E32E0E94615882E496E066ED51
:103FE00075E047E056E00E94325D10C0892B71F405
:103FF0006F5F7F4F59F407E715E0C8010E946C64BA
:104000000750104085E001331807B9F71F910F9151
:10401000FF90EF90DF90CF90089580E090E06FEFF9
:104020007FEF77CF81E090E06FEF7FEF72CFCF929D
:10403000DF92EF92FF920F931F93DF93CF93CDB751
:10404000DEB727970FB6F894DEBF0FBECDBF86ED63
:1040500095E060E174E80E94B12F86ED95E060E0A4
:1040600070E040E050E02FE331E00CE110E00E940E
:104070006F3082E496E061E070E044ED50E020E5CE
:1040800030E00AE110E0ECE4EE2EE2E0FE2EB2E0D9
:10409000CB2ED12C0E94745D90938705809386056A
:1040A00082E496E061E570E044ED50E02FE430E01A
:1040B000AEE4EA2EA2E0FA2E0E94745D9093890588
:1040C0008093880582E496E060EA70E044ED50E079
:1040D0002FE430E0F0E5EF2EF2E0FF2E0E94745D59
:1040E00090938B0580938A0582E496E06FEE70E0F2
:1040F00044ED50E020E530E0E2E5EE2EE2E0FE2E79
:104100000E94745D90938D0580938C0582E496E007
:1041100060EA70E041E050E02EE930E0B4E5EB2EDB
:10412000B2E0FB2ECC24DD240E94745D90938F05B9
:1041300080938E058091800590918105019709F00B
:1041400057C082E496E060E070E041E050E02AE190
:1041500030E0A5E6EA2EA2E0FA2E0E94745D90936C
:1041600091058093900586ED95E06FEF7FEF0E94BB
:10417000B12F86ED95E040E154E860E070E00E94E8
:10418000BE2F8091840590918505BC01F3E0660FF8
:10419000771FFA95E1F7681B790B685C7A4F7E010F
:1041A0000894E11CF11CC7010E94636486ED95E050
:1041B000B7014EE150E028E030E000E010E00E945E
:1041C000D539C7010E946C6482E496E064E870E02F
:1041D00041E050E02AE130E00AE110E0E7E6EE2EAF
:1041E000E2E0FE2E0E94745D909393058093920509
:1041F00082E496E00E948F6127960FB6F894DEBFA6
:104200000FBECDBFCF91DF911F910F91FF90EF9027
:10421000DF90CF9008958F929F92AF92BF92CF92EE
:10422000DF92EF92FF920F931F938BE090E09093B9
:1042300081058093800506ED15E0C8010E94092FD5
:10424000B2E4AB2EB6E0BB2EC5010E94DA5DEFDE14
:10425000C8016FEF7FEF0E94B12FC5016DE071E0E3
:1042600048E750E028E230E008E210E0A9E6EA2E54
:10427000A2E0FA2ECC24DD240E94745D9093BF0549
:104280008093BE05C5016DE071E040E550E028E295
:1042900030E0F7E6EF2EF2E0FF2E0E94745D90937F
:1042A000B9058093B805C50161E070E040E550E0D4
:1042B00028E230E0E5E6EE2EE2E0FE2E0E94745D9C
:1042C0009093BB058093BA05C50161E070E048E7B3
:1042D00050E028E230E0BDE6EB2EB2E0FB2E0E947B
:1042E000745D9093C1058093C005C50160E070E0E6
:1042F0004EE150E02FE130E006E110E0A1E7EA2EC8
:10430000A2E0FA2E0E94745D9093C3058093C205CB
:10431000C50160E270E04EE150E02FE130E0F4E7EB
:10432000EF2EF2E0FF2E0E94745D9093C5058093FE
:10433000C405C50160E470E04EE150E02FE130E0DB
:10434000E7E7EE2EE2E0FE2E0E94745D9093C70533
:104350008093C605BAE78B2EB2E09B2EC50160E6BE
:1043600070E04EE150E02FE130E074010E94745D96
:104370009093C9058093C805C50160E870E04EE1DF
:1043800050E02FE130E0ADE7EA2EA2E0FA2E0E94E5
:10439000745D9093CB058093CA05C50160EA70E017
:1043A0004EE150E02FE130E0F0E8EF2EF2E0FF2E9A
:1043B0000E94745D9093CD058093CC05C50160EC9F
:1043C00070E04EE150E02FE130E0E3E8EE2EE2E075
:1043D000FE2E0E94745D9093CF058093CE05C5019B
:1043E00060EE70E04EE150E02FE130E0B6E8EB2EF9
:1043F000B2E0FB2E0E94745D9093D1058093D005AE
:10440000C50160E071E04EE150E02FE130E0740161
:104410000E94745D9093D3058093D205C50160E23C
:1044200071E04EE150E02FE130E0A9E8EA2EA2E091
:10443000FA2E0E94745D9093D5058093D405C50132
:1044400068E770E045EA50E020E530E008E210E07F
:10445000FCE8EF2EF2E0FF2E0E94745D9093BD0504
:104460008093BC05C5010E948F611F910F91FF9041
:10447000EF90DF90CF90BF90AF909F908F90089576
:10448000AF92BF92CF92DF92EF92FF920F931F9362
:1044900086ED95E00E94092FF2E4AF2EF6E0BF2EE4
:1044A000C5010E94DA5DC3DD10928105109280057E
:1044B000C50161E070E04FE150E024E630E002E247
:1044C00010E0E1E9EE2EE2E0FE2ECC24DD240E9495
:1044D000745D9093950580939405C50161E070E04B
:1044E00043E450E024E630E0BAE9EB2EB2E0FB2EE4
:1044F0000E94745D9093970580939605C50161E0D5
:1045000070E047E650E024E630E0A2EAEA2EA2E0BE
:10451000FA2E0E94745D9093990580939805C501C9
:1045200061E070E04BE850E024E630E0FAEAEF2E7C
:10453000F2E0FF2E0E94745D90939B0580939A0594
:10454000C50161E070E04FEA50E024E630E0E3EBC3
:10455000EE2EE2E0FE2E0E94745D90939D05809306
:104560009C05C5010E948F611F910F91FF90EF90F4
:10457000DF90CF90BF90AF9008950F931F9306EDFB
:1045800015E0C8010E94092F82E496E00E94DA5DDE
:104590004EDDC80169EB72E04EE057E22EE630E0F6
:1045A00000E010E00E9408391F910F9108950F93C9
:1045B0001F9306ED15E0C8010E94092F82E496E0E2
:1045C0000E94DA5D34DD82E090E090938105809373
:1045D0008005C80169EB72E04EE057E22EE630E05C
:1045E00000E010E00E9408391F910F9108950F9389
:1045F0001F9306ED15E0C8010E94092F82E496E0A2
:104600000E94DA5D14DDC80169EB72E04EE057E20A
:104610002EE630E000E010E00E9408391F910F9173
:104620000895EF92FF920F931F93A6EDEA2EA5E057
:10463000FA2EC7010E94092F82E496E00E94DA5DFB
:10464000F6DCC70165EC72E04EE057E22CE330E0A7
:1046500000E010E00E940839C70161ED72E04EE011
:1046600057E220E530E00E940839C7016FED72E0A3
:104670004EE057E22EE630E00E940839C70161EFB4
:1046800072E04EE057E222E830E00E940839C701AC
:1046900065EF72E04EE057E220EA30E00E94083910
:1046A0001F910F91FF90EF9008956F927F928F92DC
:1046B0009F92AF92BF92CF92DF92EF92FF920F93B1
:1046C0001F93CF93DF9381E090E0909381058093D7
:1046D000800586ED95E00E94092F82E496E00E9415
:1046E000DA5DA5DC82E496E061E070E041E250E052
:1046F0002EE130E002E210E0E7E0EE2EE3E0FE2EF5
:10470000CC24DD240E94745D90939F0580939E05C8
:1047100082E496E061E070E043E450E02EE130E0B6
:10472000BAE0EB2EB3E0FB2E0E94745D9093A105DE
:104730008093A00582E496E061E070E047E650E0F7
:104740002EE130E0AEE0EA2EA3E0FA2E0E94745D86
:104750009093A3058093A20582E496E061E070E067
:104760004BE850E02EE130E0F1E1EF2EF3E0FF2ED8
:104770000E94745D9093A5058093A40582E496E061
:1047800061E070E04FEA50E02EE130E0E5E1EE2E2E
:10479000E3E0FE2E0E94745D9093A7058093A6052A
:1047A00082E496E064E270E04BEB50E02FE130E011
:1047B00006E110E0B7E1EB2EB3E0FB2E0E94745D42
:1047C0009093A9058093A80582E496E068E470E0E0
:1047D0004BEB50E02FE130E0AAE1EA2EA3E0FA2E05
:1047E0000E94745D9093AB058093AA0582E496E0E5
:1047F0006CE670E04BEB50E02FE130E0FDE1EF2E96
:10480000F3E0FF2E0E94745D9093AD058093AC059C
:1048100082E496E060E970E04BEB50E02FE130E09D
:10482000E0E2EE2EE3E0FE2E0E94745D9093AF0571
:104830008093AE0582E496E064EB70E04BEB50E0D1
:104840002FE130E0B3E2EB2EB3E0FB2E0E94745D6B
:104850009093B1058093B00582E496E068ED70E036
:104860004BEB50E02FE130E0A6E2EA2EA3E0FA2E77
:104870000E94745D9093B3058093B20582E496E044
:104880006CEF70E04BEB50E02FE130E0F9E2EF2EFF
:10489000F3E0FF2E0E94745D9093B5058093B405FC
:1048A00082E496E060E271E04BEB50E02FE130E013
:1048B000ECE2EE2EE3E0FE2E0E94745D9093B705CD
:1048C0008093B60580918004909181048130910598
:1048D00089F0823091051CF4892B39F01EC082309A
:1048E000910569F00397C9F40FC06091A405709118
:1048F000A5050EC06091A2057091A30509C0609145
:10490000A0057091A10504C060919E0570919F055E
:1049100082E496E040E00E9468618091800490917A
:104920008104892B09F4F0C030E7832E34E0932E04
:10493000AA24BB2424E2C22ED12CC3E4D0E091EE01
:10494000692E9FEF792E75010894E11CF11C24E07B
:10495000E216F10489F135E0E316F1046CF482E02B
:10496000E816F104F1F093E0E916F10404F5E1E052
:10497000EE16F104E9F511C0F6E0EF16F10429F1A5
:1049800026E0E216F104E4F037E0E316F10419F151
:1049900088E0E816F10461F524C086ED95E06FEF3C
:1049A00009C086ED95E060E040E020E81FC086ED9C
:1049B00095E060E040E013C086ED95E060E00EC059
:1049C00086ED95E060E04FEF04C086ED95E06FEF77
:1049D00040E020E00BC086ED95E06FEF4FEF2FEF4A
:1049E00005C086ED95E06FEF4CED24E90E94992F0C
:1049F0008091800490918104019749F5E0918405AC
:104A0000F091850584E0EE0FFF1F8A95E1F7389657
:104A1000EA0DFB1DEE0FFF1FE05DFC4F80819181D1
:104A2000FC01E69DC001E79D900DF69D900D1124BF
:104A300063E370E00E94CD68AB0147545F4F86EDA1
:104A400095E0B6019E0109EB10E00E94853180914E
:104A50008004909181040297D1F4F40180819181C6
:104A60009C01269DC001279D900D369D900D11241F
:104A700063E370E00E94CD68AB0147545F4F86ED61
:104A800095E0B6019E0109EB10E00E94853180910E
:104A9000800490918104039741F5E0918405F091A1
:104AA000850514E0EE0FFF1F1A95E1F7EA0DFB1DD7
:104AB000EE0FFF1FE05DFC4F80819181FC01E69DC0
:104AC000C001E79D900DF69D900D112463E370E009
:104AD0000E94CD68AB0147545F4F86ED95E0B6016B
:104AE0009E0109EB10E00E94853124E230E0C20E05
:104AF000D31EA49682E090E0880E991E98E0E916F5
:104B0000F10411F057011FCF82E496E00E948F61FB
:104B1000DF91CF911F910F91FF90EF90DF90CF9099
:104B2000BF90AF909F908F907F906F90089587E097
:104B300096E00E940B5A882309F4A0C182E496E013
:104B40000E94155E9C0190937F0580937E05809165
:104B50008005909181058130910509F449C08B3021
:104B6000910509F477C1892B09F07CC180919405E6
:104B7000909195052817390749F480918204909106
:104B8000830490938505809384058FDD20917E05B5
:104B900030917F05809196059091970528173907E8
:104BA00009F405DD20917E0530917F0580919805FF
:104BB000909199052817390709F419DD20917E0590
:104BC00030917F0580919A0590919B0528173907B0
:104BD00009F4D3DC20917E0530917F0580919C05FE
:104BE00090919D052817390709F03CC11ADD3AC19B
:104BF0008091A8059091A9052817390729F41092EA
:104C000083051092820507DB20917E0530917F0598
:104C10008091AA059091AB052817390739F481E0F6
:104C200090E09093830580938205F5DA20917E05CC
:104C300030917F058091AC059091AD05281739071B
:104C400039F482E090E09093830580938205E3DA63
:104C500020917E0530917F058091AE059091AF0542
:104C60002817390739F483E090E090938305809307
:104C70008205D1DA20917E0530917F058091B005C3
:104C80009091B1052817390739F484E090E09093AA
:104C9000830580938205BFDA20917E0530917F05E0
:104CA0008091B2059091B3052817390739F485E052
:104CB00090E09093830580938205ADDA20917E0584
:104CC00030917F058091B4059091B505281739077B
:104CD00039F486E090E090938305809382059BDA17
:104CE00020917E0530917F058091B6059091B705A2
:104CF0002817390739F487E090E090938305809373
:104D0000820589DA20917E0530917F0580919E058C
:104D100090919F052817390739F483E090E090932C
:104D2000810480938004C1DC20917E0530917F0551
:104D30008091A0059091A1052817390701F5809170
:104D4000820490918304909385058093840582E08A
:104D500090E0909381048093800420E030E0F9019A
:104D6000E85DFA4FD901A059BB4F8D919C91918379
:104D700080832E5F3F4F2031310589F796DC2091EB
:104D80007E0530917F058091A2059091A30528179B
:104D9000390739F481E090E0909381048093800496
:104DA00084DC20917E0530917F058091A40590914F
:104DB000A5052817390729F4109281041092800460
:104DC00074DC20917E0530917F0580919005909153
:104DD00091052817390799F48091840590918505EC
:104DE000019790938505809384058F5F9F4F31F4E1
:104DF00088E090E0909385058093840556DC2091AF
:104E00007E0530917F05809192059091930528173A
:104E1000390781F4809184059091850501969093DE
:104E2000850580938405099721F4109285051092D9
:104E300084053BDC20917E0530917F058091A6059D
:104E40009091A7052817390769F4109285041092EC
:104E5000840407C08091BC059091BD0528173907CF
:104E600009F423DC20917E0530917F058091860531
:104E7000909187052817390709F402CB089557CE7A
:104E80000895EF92FF920F931F93A8E2B5E0E0E739
:104E9000F4E088E001900D928150E1F786ED95E015
:104EA00061E00E941C3A86ED95E0B3D786ED95E06F
:104EB0006EE771E00E944F3587E096E061E00E9466
:104EC000345C87E096E062E00E94F55982E496E067
:104ED0006EE771E00E94F35D82E496E06EEA79E1AC
:104EE0000E94F95D82E496E060EE7FEF40E058EFCB
:104EF00020EE3FEF0FE110E0F0E1EF2EF4E8FF2E9F
:104F00000E94FF5D86ED95E060E10E942637B8DAE9
:104F10001F910F91FF90EF900895DC01542F2830DE
:104F200009F47AC1293020F4213009F051C207C0B8
:104F3000203109F489C1213109F04AC29CC11F9670
:104F40008C911F97843029F55896ED91FC915997D3
:104F500092969C919297613021F48081892B808375
:104F600004C080819095982390835A96ED91FC918E
:104F70005B97908193968C919397809589238083FA
:104F80005A96ED91FC915B97808193969C919397B3
:104F90000AC05096ED91FC9151975E969C915E9758
:104FA000613021F48081892B808304C080819095B9
:104FB000982390835896ED91FC91599792969C91E5
:104FC000929757FF04C08081892B808304C0808121
:104FD0009095982390835A96ED91FC915B979081E0
:104FE00093968C9193978095892380835A96ED911F
:104FF000FC915B97808193969C919397892B8083FA
:10500000252F332727FD30955896ED91FC91599720
:1050100092969C91929726FF04C08081892B808371
:1050200004C080819095982390835A96ED91FC91CD
:105030005B97908193968C91939780958923808339
:105040005A96ED91FC915B97808193969C919397F2
:10505000892B80835896ED91FC91599792969C915B
:10506000929725FF04C08081892B808304C08081B2
:105070009095982390835A96ED91FC915B9790813F
:1050800093968C9193978095892380835A96ED917E
:10509000FC915B97808193969C919397892B808359
:1050A0005896ED91FC91599792969C91929724FF76
:1050B00004C08081892B808304C0808190959823CF
:1050C00090835A96ED91FC915B97908193968C9189
:1050D00093978095892380835A96ED91FC915B97F5
:1050E000808193969C919397892B80835896ED911C
:1050F000FC91599792969C91929723FF04C08081CE
:10510000892B808304C080819095982390835A9640
:10511000ED91FC915B97908193968C9193978095FC
:10512000892380835A96ED91FC915B9780819396B9
:105130009C919397892B80835896ED91FC91599778
:1051400092969C91929722FF04C08081892B808344
:1051500004C080819095982390835A96ED91FC919C
:105160005B97908193968C91939780958923808308
:105170005A96ED91FC915B97808193969C919397C1
:10518000892B80835896ED91FC91599792969C912A
:10519000929721FF04C08081892B808304C0808185
:1051A0009095982390835A96ED91FC915B9790810E
:1051B00093968C9193978095892380835A96ED914D
:1051C000FC915B97808193969C919397892B808328
:1051D0005896ED91FC91599792969C91929720FF49
:1051E00004C08081892B808304C08081909598239E
:1051F00090835A96ED91FC915B97908193968C9158
:1052000093978095892380835A96ED91FC915B97C3
:10521000808193969C912CC062B95296ED91FC913D
:10522000539790815F968C915F97809589238083B7
:105230005296ED91FC91539780815F969C915F9778
:10524000892B808342B902C062B948B95296ED9168
:10525000FC91539790815F968C915F9780958923FD
:1052600080835296ED91FC91539780815F969C913B
:10527000892B80830895A59844B3262F332727FDD3
:105280003095C90180719070880F991F482B44BBDD
:1052900080910201877E8093020140910201C90141
:1052A000807C9070F3E095958795FA95E1F7482B0F
:1052B000409302018EB1847C8EB99EB1862F8C7092
:1052C000880F880F6370860F207230703595279590
:1052D00035952795820F892B8EB95C96ED91FC91BF
:1052E0005D97908194968C91949780958923808383
:1052F0005C96ED91FC915D97808194969C9194973A
:10530000892B80835C96ED91FC915D9790819496BA
:105310008C9194978095892380835496ED91FC918C
:105320005597908190968C91909780958923808352
:10533000A59844B3252F332727FD3095C9018071E7
:105340009070880F991F482B44BB80910201877E83
:105350008093020140910201C901807C907063E05A
:10536000959587956A95E1F7482B409302018EB198
:10537000847C8EB99EB1852F8C70880F880F5370F6
:10538000850F207230703595279535952795820FBA
:10539000892B8EB95296ED91FC91539790815F962F
:1053A0008C915F978095892380835296ED91FC9133
:1053B000539780815F969C915F97892B8083549649
:1053C000ED91FC915597808190969C91892B8083DB
:1053D0000895AF92BF92CF92DF92EF92FF920F9318
:1053E0001F93CF93DF93EC015801690162B948B96B
:1053F000C901B80120E130E040E050E00E940269BC
:1054000079018A0120E030E040E050E0D4C0EA8930
:10541000FB8990818F8D809589238083EA89FB8920
:1054200080819F8D892B8083EA89FB8990818F8D74
:10543000809589238083EA89FB8980819F8D892BD0
:105440008083EA89FB8990818F8D80958923808371
:10545000EA89FB8980819F8D892B8083EA89FB897A
:1054600090818F8D809589238083EA89FB89808153
:105470009F8D892B8083EA89FB8990818F8D809510
:1054800089238083EA89FB8980819F8D892B808392
:10549000EA89FB8990818F8D809589238083EA89B1
:1054A000FB8980819F8D892B8083EA89FB8990818C
:1054B0008F8D809589238083EA89FB8980819F8DE8
:1054C000892B8083EA89FB8990818F8D8095892340
:1054D0008083EA89FB8980819F8D892B8083EA897B
:1054E000FB8990818F8D809589238083EA89FB8950
:1054F00080819F8D892B8083EA89FB8990818F8DA4
:10550000809589238083EA89FB8980819F8D892BFF
:105510008083EA89FB8990818F8D809589238083A0
:10552000EA89FB8980819F8D892B8083EA89FB89A9
:1055300090818F8D809589238083EA89FB89808182
:105540009F8D892B8083EA89FB8990818F8D80953F
:1055500089238083EA89FB8980819F8D892B8083C1
:10556000EA89FB8990818F8D809589238083EA89E0
:10557000FB8980819F8D892B8083EA89FB899081BB
:105580008F8D809589238083EA89FB8980819F8D17
:10559000892B8083EA89FB8990818F8D809589236F
:1055A0008083EA89FB8980819F8D892B80832F5F8F
:1055B0003F4F4F4F5F4F2E153F05400751070CF4EB
:1055C00026CFD601C5018F709070A070B070009783
:1055D000A105B10529F1C601B50120E130E040E0A7
:1055E00050E00E9402699B01AC01EE24FF24870178
:1055F00012C0EA89FB8990818F8D809589238083F1
:10560000EA89FB8980819F8D892B80830894E11C26
:10561000F11C011D111D2E153F05400751074CF7C8
:10562000DF91CF911F910F91FF90EF90DF90CF907E
:10563000BF90AF900895AF92BF92CF92DF92EF925A
:10564000FF920F931F93CF93DF93EC0159016A01EF
:1056500062B9CA01B90120E130E040E050E00E94A7
:10566000026979018A0120E030E040E050E0A4C105
:10567000EA89FB8990818F8D809589238083EA89CF
:10568000FB8980819F8D892B8083EA89FB899081AA
:105690008F8D809589238083EA89FB8980819F8D06
:1056A000892B8083EA89FB8990818F8D809589235E
:1056B0008083EA89FB8980819F8D892B8083EA8999
:1056C000FB8990818F8D809589238083EA89FB896E
:1056D00080819F8D892B8083EA89FB8990818F8DC2
:1056E000809589238083EA89FB8980819F8D892B1E
:1056F0008083EA89FB8990818F8D809589238083BF
:10570000EA89FB8980819F8D892B8083EA89FB89C7
:1057100090818F8D809589238083EA89FB898081A0
:105720009F8D892B8083EA89FB8990818F8D80955D
:1057300089238083EA89FB8980819F8D892B8083DF
:10574000EA89FB8990818F8D809589238083EA89FE
:10575000FB8980819F8D892B8083EA89FB899081D9
:105760008F8D809589238083EA89FB8980819F8D35
:10577000892B8083EA89FB8990818F8D809589238D
:105780008083EA89FB8980819F8D892B8083EA89C8
:10579000FB8990818F8D809589238083EA89FB899D
:1057A00080819F8D892B8083EA89FB8990818F8DF1
:1057B000809589238083EA89FB8980819F8D892B4D
:1057C0008083EA89FB8990818F8D809589238083EE
:1057D000EA89FB8980819F8D892B8083EA89FB89F7
:1057E00090818F8D809589238083EA89FB898081D0
:1057F0009F8D892B8083EA89FB8990818F8D80958D
:1058000089238083EA89FB8980819F8D892B80830E
:10581000EA89FB8990818F8D809589238083EA892D
:10582000FB8980819F8D892B8083EA89FB89908108
:105830008F8D809589238083EA89FB8980819F8D64
:10584000892B8083EA89FB8990818F8D80958923BC
:105850008083EA89FB8980819F8D892B8083EA89F7
:10586000FB8990818F8D809589238083EA89FB89CC
:1058700080819F8D892B8083EA89FB8990818F8D20
:10588000809589238083EA89FB8980819F8D892B7C
:105890008083EA89FB8990818F8D8095892380831D
:1058A000EA89FB8980819F8D892B8083EA89FB8926
:1058B00090818F8D809589238083EA89FB898081FF
:1058C0009F8D892B8083EA89FB8990818F8D8095BC
:1058D00089238083EA89FB8980819F8D892B80833E
:1058E000EA89FB8990818F8D809589238083EA895D
:1058F000FB8980819F8D892B8083EA89FB89908138
:105900008F8D809589238083EA89FB8980819F8D93
:10591000892B8083EA89FB8990818F8D80958923EB
:105920008083EA89FB8980819F8D892B8083EA8926
:10593000FB8990818F8D809589238083EA89FB89FB
:1059400080819F8D892B8083EA89FB8990818F8D4F
:10595000809589238083EA89FB8980819F8D892BAB
:105960008083EA89FB8990818F8D8095892380834C
:10597000EA89FB8980819F8D892B8083EA89FB8955
:1059800090818F8D809589238083EA89FB8980812E
:105990009F8D892B8083EA89FB8990818F8D8095EB
:1059A00089238083EA89FB8980819F8D892B80836D
:1059B0002F5F3F4F4F4F5F4F2E153F054007510759
:1059C0000CF456CED601C5018F709070A070B070E7
:1059D0000097A105B10591F1C601B50120E130E0C4
:1059E00040E050E00E9402699B01AC01EE24FF24DC
:1059F00087011FC0EA89FB8990818F8D809589235B
:105A00008083EA89FB8980819F8D892B8083EA8945
:105A1000FB8990818F8D809589238083EA89FB891A
:105A200080819F8D892B80830894E11CF11C011DCE
:105A3000111D2E153F0540075107E4F6DF91CF9168
:105A40001F910F91FF90EF90DF90CF90BF90AF909C
:105A50000895DC01462F1E968C911E97813081F0AF
:105A60005096ED91FC91519790815E968C915E9746
:105A7000809589238083CD0160E01E962C9103C020
:105A8000CD0160E021E049CA1F93CF93DF93EC0181
:105A9000262F142F8E85813041F0E889F989808185
:105AA0009E8D892B8083CE0107C0CE0161E0422FFD
:105AB00021E033DACE0161E0412F2E852EDADF912D
:105AC000CF911F910895DC01462F1E968C911E9751
:105AD000813079F05096ED91FC91519780815E96DE
